{
  "contractName": "AccessControl",
  "abi": [
    {
      "anonymous": false,
      "inputs": [
        {
          "indexed": true,
          "internalType": "bytes32",
          "name": "role",
          "type": "bytes32"
        },
        {
          "indexed": true,
          "internalType": "address",
          "name": "account",
          "type": "address"
        },
        {
          "indexed": true,
          "internalType": "address",
          "name": "sender",
          "type": "address"
        }
      ],
      "name": "RoleGranted",
      "type": "event"
    },
    {
      "anonymous": false,
      "inputs": [
        {
          "indexed": true,
          "internalType": "bytes32",
          "name": "role",
          "type": "bytes32"
        },
        {
          "indexed": true,
          "internalType": "address",
          "name": "account",
          "type": "address"
        },
        {
          "indexed": true,
          "internalType": "address",
          "name": "sender",
          "type": "address"
        }
      ],
      "name": "RoleRevoked",
      "type": "event"
    },
    {
      "inputs": [],
      "name": "CUSTOMER_ROLE",
      "outputs": [
        {
          "internalType": "bytes32",
          "name": "",
          "type": "bytes32"
        }
      ],
      "stateMutability": "view",
      "type": "function",
      "constant": true
    },
    {
      "inputs": [],
      "name": "DEFAULT_ADMIN_ROLE",
      "outputs": [
        {
          "internalType": "bytes32",
          "name": "",
          "type": "bytes32"
        }
      ],
      "stateMutability": "view",
      "type": "function",
      "constant": true
    },
    {
      "inputs": [],
      "name": "MANUFACTURER_ROLE",
      "outputs": [
        {
          "internalType": "bytes32",
          "name": "",
          "type": "bytes32"
        }
      ],
      "stateMutability": "view",
      "type": "function",
      "constant": true
    },
    {
      "inputs": [],
      "name": "RETAILER_ROLE",
      "outputs": [
        {
          "internalType": "bytes32",
          "name": "",
          "type": "bytes32"
        }
      ],
      "stateMutability": "view",
      "type": "function",
      "constant": true
    },
    {
      "inputs": [],
      "name": "TRANSPORTER_ROLE",
      "outputs": [
        {
          "internalType": "bytes32",
          "name": "",
          "type": "bytes32"
        }
      ],
      "stateMutability": "view",
      "type": "function",
      "constant": true
    },
    {
      "inputs": [
        {
          "internalType": "bytes32",
          "name": "role",
          "type": "bytes32"
        },
        {
          "internalType": "address",
          "name": "account",
          "type": "address"
        }
      ],
      "name": "hasRole",
      "outputs": [
        {
          "internalType": "bool",
          "name": "",
          "type": "bool"
        }
      ],
      "stateMutability": "view",
      "type": "function",
      "constant": true
    },
    {
      "inputs": [
        {
          "internalType": "bytes32",
          "name": "role",
          "type": "bytes32"
        },
        {
          "internalType": "address",
          "name": "account",
          "type": "address"
        }
      ],
      "name": "grantRole",
      "outputs": [],
      "stateMutability": "nonpayable",
      "type": "function"
    },
    {
      "inputs": [
        {
          "internalType": "bytes32",
          "name": "role",
          "type": "bytes32"
        },
        {
          "internalType": "address",
          "name": "account",
          "type": "address"
        }
      ],
      "name": "revokeRole",
      "outputs": [],
      "stateMutability": "nonpayable",
      "type": "function"
    }
  ],
  "bytecode": "0x608060405234801561001057600080fd5b506103ba806100206000396000f3fe608060405234801561001057600080fd5b50600436106100885760003560e01c806391d148541161005b57806391d148541461012a578063965288b01461014d578063a217fddf14610174578063d547741f1461017c57600080fd5b8063204d79231461008d5780632115e7bf146100c75780632f2ff15d146100ee5780634eabbe7714610103575b600080fd5b6100b47f288a15c4a15d470e4cd9cad2f113b91206b520c26dbd3dd74627f0c057baa19c81565b6040519081526020015b60405180910390f35b6100b47f2a5f906c256a5d799494fcd066e1f6c077689de1cdb65052a1624de4bace99bf81565b6101016100fc3660046102f7565b61018f565b005b6100b47fddaa901e2fe3bda354fe0ede2785152d5c109282a613fe024a056a3e66c41bb381565b61013d6101383660046102f7565b6101cf565b60405190151581526020016100be565b6100b47feefb95e842a3287179d933b4460be539a1d5af11aa8b325bb45c5c8dc92de4ed81565b6100b4600081565b61010161018a3660046102f7565b6101f8565b600061019b81336101cf565b6101c05760405162461bcd60e51b81526004016101b790610333565b60405180910390fd5b6101ca838361022a565b505050565b6000918252602082815260408084206001600160a01b0393909316845291905290205460ff1690565b600061020481336101cf565b6102205760405162461bcd60e51b81526004016101b790610333565b6101ca8383610292565b61023482826101cf565b61028e576000828152602081815260408083206001600160a01b0385168085529252808320805460ff1916600117905551339285917f2f8788117e7eff1d82e926ec794901d17c78024a50270940304540a733656f0d9190a45b5050565b61029c82826101cf565b1561028e576000828152602081815260408083206001600160a01b0385168085529252808320805460ff1916905551339285917ff6391f5c32d9c69d2a47ea670b442974b53935d1edc7fd64eb21e047a839171b9190a45050565b6000806040838503121561030a57600080fd5b8235915060208301356001600160a01b038116811461032857600080fd5b809150509250929050565b60208082526031908201527f416363657373436f6e74726f6c3a2073656e64657220646f6573206e6f74206860408201527061766520726571756972656420726f6c6560781b60608201526080019056fea26469706673582212205ce904580a1997e678bbdc088db8b43333646cd636aa8e572f52572952fa39ce64736f6c63430008130033",
  "immutableReferences": {},
  "source": "pragma solidity ^0.8.0;\n\ncontract AccessControl {\n    \n    bytes32 public constant DEFAULT_ADMIN_ROLE = 0x00;\n    bytes32 public constant MANUFACTURER_ROLE = keccak256(\"MANUFACTURER_ROLE\");\n    bytes32 public constant TRANSPORTER_ROLE = keccak256(\"TRANSPORTER_ROLE\");\n    bytes32 public constant RETAILER_ROLE = keccak256(\"RETAILER_ROLE\");\n    bytes32 public constant CUSTOMER_ROLE = keccak256(\"CUSTOMER_ROLE\");\n    \n    mapping(bytes32 => mapping(address => bool)) private _roles;\n    \n    event RoleGranted(bytes32 indexed role, address indexed account, address indexed sender);\n    event RoleRevoked(bytes32 indexed role, address indexed account, address indexed sender);\n    \n    modifier onlyRole(bytes32 role) {\n        require(hasRole(role, msg.sender), \"AccessControl: sender does not have required role\");\n        _;\n    }\n    \n    function hasRole(bytes32 role, address account) public view returns (bool) {\n        return _roles[role][account];\n    }\n    \n    function grantRole(bytes32 role, address account) public onlyRole(DEFAULT_ADMIN_ROLE) {\n        _grantRole(role, account);\n    }\n    \n    function revokeRole(bytes32 role, address account) public onlyRole(DEFAULT_ADMIN_ROLE) {\n        _revokeRole(role, account);\n    }\n    \n    function _setupRole(bytes32 role, address account) internal {\n        _grantRole(role, account);\n    }\n    \n    function _grantRole(bytes32 role, address account) private {\n        if (!hasRole(role, account)) {\n            _roles[role][account] = true;\n            emit RoleGranted(role, account, msg.sender);\n        }\n    }\n    \n    function _revokeRole(bytes32 role, address account) private {\n        if (hasRole(role, account)) {\n            _roles[role][account] = false;\n            emit RoleRevoked(role, account, msg.sender);\n        }\n    }\n}\n",
  "sourcePath": "/Users/prakashraval/Library/CloudStorage/OneDrive-DeakinUniversity/Trimester 3 (July 2025)/Blockchain Technologies and Real-World Applications/hd/Task10.2/contracts/AccessControl.sol",
  "compiler": {
    "name": "solc",
    "version": "0.8.19+commit.7dd6d404.Emscripten.clang"
  },
  "schemaVersion": "3.4.16",
  "updatedAt": "2025-09-29T12:20:08.818Z",
  "networkType": "ethereum",
  "devdoc": {
    "kind": "dev",
    "methods": {},
    "version": 1
  },
  "userdoc": {
    "kind": "user",
    "methods": {},
    "version": 1
  }
}