{
  "contractName": "SupplyChain",
  "abi": [
    {
      "inputs": [],
      "stateMutability": "nonpayable",
      "type": "constructor"
    },
    {
      "anonymous": false,
      "inputs": [
        {
          "indexed": true,
          "internalType": "uint256",
          "name": "id",
          "type": "uint256"
        },
        {
          "indexed": true,
          "internalType": "address",
          "name": "oldHandler",
          "type": "address"
        },
        {
          "indexed": true,
          "internalType": "address",
          "name": "newHandler",
          "type": "address"
        }
      ],
      "name": "HandlerChanged",
      "type": "event"
    },
    {
      "anonymous": false,
      "inputs": [
        {
          "indexed": true,
          "internalType": "uint256",
          "name": "id",
          "type": "uint256"
        },
        {
          "indexed": false,
          "internalType": "string",
          "name": "latitude",
          "type": "string"
        },
        {
          "indexed": false,
          "internalType": "string",
          "name": "longitude",
          "type": "string"
        },
        {
          "indexed": false,
          "internalType": "uint256",
          "name": "timestamp",
          "type": "uint256"
        }
      ],
      "name": "LocationUpdated",
      "type": "event"
    },
    {
      "anonymous": false,
      "inputs": [
        {
          "indexed": true,
          "internalType": "bytes32",
          "name": "role",
          "type": "bytes32"
        },
        {
          "indexed": true,
          "internalType": "address",
          "name": "account",
          "type": "address"
        },
        {
          "indexed": true,
          "internalType": "address",
          "name": "sender",
          "type": "address"
        }
      ],
      "name": "RoleGranted",
      "type": "event"
    },
    {
      "anonymous": false,
      "inputs": [
        {
          "indexed": true,
          "internalType": "bytes32",
          "name": "role",
          "type": "bytes32"
        },
        {
          "indexed": true,
          "internalType": "address",
          "name": "account",
          "type": "address"
        },
        {
          "indexed": true,
          "internalType": "address",
          "name": "sender",
          "type": "address"
        }
      ],
      "name": "RoleRevoked",
      "type": "event"
    },
    {
      "anonymous": false,
      "inputs": [
        {
          "indexed": true,
          "internalType": "uint256",
          "name": "id",
          "type": "uint256"
        },
        {
          "indexed": true,
          "internalType": "address",
          "name": "manufacturer",
          "type": "address"
        },
        {
          "indexed": false,
          "internalType": "string",
          "name": "productName",
          "type": "string"
        }
      ],
      "name": "ShipmentCreated",
      "type": "event"
    },
    {
      "anonymous": false,
      "inputs": [
        {
          "indexed": true,
          "internalType": "uint256",
          "name": "id",
          "type": "uint256"
        },
        {
          "indexed": false,
          "internalType": "uint256",
          "name": "timestamp",
          "type": "uint256"
        }
      ],
      "name": "ShipmentDelivered",
      "type": "event"
    },
    {
      "anonymous": false,
      "inputs": [
        {
          "indexed": true,
          "internalType": "uint256",
          "name": "id",
          "type": "uint256"
        },
        {
          "indexed": false,
          "internalType": "enum SupplyChain.ShipmentStatus",
          "name": "status",
          "type": "uint8"
        },
        {
          "indexed": false,
          "internalType": "uint256",
          "name": "timestamp",
          "type": "uint256"
        }
      ],
      "name": "StatusUpdated",
      "type": "event"
    },
    {
      "inputs": [],
      "name": "CUSTOMER_ROLE",
      "outputs": [
        {
          "internalType": "bytes32",
          "name": "",
          "type": "bytes32"
        }
      ],
      "stateMutability": "view",
      "type": "function",
      "constant": true
    },
    {
      "inputs": [],
      "name": "DEFAULT_ADMIN_ROLE",
      "outputs": [
        {
          "internalType": "bytes32",
          "name": "",
          "type": "bytes32"
        }
      ],
      "stateMutability": "view",
      "type": "function",
      "constant": true
    },
    {
      "inputs": [],
      "name": "MANUFACTURER_ROLE",
      "outputs": [
        {
          "internalType": "bytes32",
          "name": "",
          "type": "bytes32"
        }
      ],
      "stateMutability": "view",
      "type": "function",
      "constant": true
    },
    {
      "inputs": [],
      "name": "RETAILER_ROLE",
      "outputs": [
        {
          "internalType": "bytes32",
          "name": "",
          "type": "bytes32"
        }
      ],
      "stateMutability": "view",
      "type": "function",
      "constant": true
    },
    {
      "inputs": [],
      "name": "TRANSPORTER_ROLE",
      "outputs": [
        {
          "internalType": "bytes32",
          "name": "",
          "type": "bytes32"
        }
      ],
      "stateMutability": "view",
      "type": "function",
      "constant": true
    },
    {
      "inputs": [
        {
          "internalType": "bytes32",
          "name": "role",
          "type": "bytes32"
        },
        {
          "internalType": "address",
          "name": "account",
          "type": "address"
        }
      ],
      "name": "grantRole",
      "outputs": [],
      "stateMutability": "nonpayable",
      "type": "function"
    },
    {
      "inputs": [
        {
          "internalType": "bytes32",
          "name": "role",
          "type": "bytes32"
        },
        {
          "internalType": "address",
          "name": "account",
          "type": "address"
        }
      ],
      "name": "hasRole",
      "outputs": [
        {
          "internalType": "bool",
          "name": "",
          "type": "bool"
        }
      ],
      "stateMutability": "view",
      "type": "function",
      "constant": true
    },
    {
      "inputs": [
        {
          "internalType": "bytes32",
          "name": "role",
          "type": "bytes32"
        },
        {
          "internalType": "address",
          "name": "account",
          "type": "address"
        }
      ],
      "name": "revokeRole",
      "outputs": [],
      "stateMutability": "nonpayable",
      "type": "function"
    },
    {
      "inputs": [],
      "name": "shipmentCounter",
      "outputs": [
        {
          "internalType": "uint256",
          "name": "",
          "type": "uint256"
        }
      ],
      "stateMutability": "view",
      "type": "function",
      "constant": true
    },
    {
      "inputs": [
        {
          "internalType": "uint256",
          "name": "",
          "type": "uint256"
        }
      ],
      "name": "shipments",
      "outputs": [
        {
          "internalType": "uint256",
          "name": "id",
          "type": "uint256"
        },
        {
          "internalType": "string",
          "name": "productName",
          "type": "string"
        },
        {
          "internalType": "string",
          "name": "description",
          "type": "string"
        },
        {
          "internalType": "address",
          "name": "manufacturer",
          "type": "address"
        },
        {
          "internalType": "address",
          "name": "currentHandler",
          "type": "address"
        },
        {
          "internalType": "address",
          "name": "recipient",
          "type": "address"
        },
        {
          "internalType": "enum SupplyChain.ShipmentStatus",
          "name": "status",
          "type": "uint8"
        },
        {
          "internalType": "uint256",
          "name": "createdAt",
          "type": "uint256"
        },
        {
          "internalType": "uint256",
          "name": "deliveredAt",
          "type": "uint256"
        },
        {
          "internalType": "string",
          "name": "ipfsHash",
          "type": "string"
        },
        {
          "internalType": "bool",
          "name": "isActive",
          "type": "bool"
        }
      ],
      "stateMutability": "view",
      "type": "function",
      "constant": true
    },
    {
      "inputs": [
        {
          "internalType": "address",
          "name": "",
          "type": "address"
        },
        {
          "internalType": "uint256",
          "name": "",
          "type": "uint256"
        }
      ],
      "name": "userShipments",
      "outputs": [
        {
          "internalType": "uint256",
          "name": "",
          "type": "uint256"
        }
      ],
      "stateMutability": "view",
      "type": "function",
      "constant": true
    },
    {
      "inputs": [
        {
          "internalType": "string",
          "name": "_productName",
          "type": "string"
        },
        {
          "internalType": "string",
          "name": "_description",
          "type": "string"
        },
        {
          "internalType": "address",
          "name": "_recipient",
          "type": "address"
        },
        {
          "internalType": "string",
          "name": "_ipfsHash",
          "type": "string"
        }
      ],
      "name": "createShipment",
      "outputs": [
        {
          "internalType": "uint256",
          "name": "",
          "type": "uint256"
        }
      ],
      "stateMutability": "nonpayable",
      "type": "function"
    },
    {
      "inputs": [
        {
          "internalType": "uint256",
          "name": "_shipmentId",
          "type": "uint256"
        },
        {
          "internalType": "string",
          "name": "_latitude",
          "type": "string"
        },
        {
          "internalType": "string",
          "name": "_longitude",
          "type": "string"
        }
      ],
      "name": "updateLocation",
      "outputs": [],
      "stateMutability": "nonpayable",
      "type": "function"
    },
    {
      "inputs": [
        {
          "internalType": "uint256",
          "name": "_shipmentId",
          "type": "uint256"
        },
        {
          "internalType": "enum SupplyChain.ShipmentStatus",
          "name": "_status",
          "type": "uint8"
        }
      ],
      "name": "updateStatus",
      "outputs": [],
      "stateMutability": "nonpayable",
      "type": "function"
    },
    {
      "inputs": [
        {
          "internalType": "uint256",
          "name": "_shipmentId",
          "type": "uint256"
        },
        {
          "internalType": "address",
          "name": "_newHandler",
          "type": "address"
        }
      ],
      "name": "transferHandler",
      "outputs": [],
      "stateMutability": "nonpayable",
      "type": "function"
    },
    {
      "inputs": [
        {
          "internalType": "uint256",
          "name": "_shipmentId",
          "type": "uint256"
        }
      ],
      "name": "getShipment",
      "outputs": [
        {
          "internalType": "uint256",
          "name": "id",
          "type": "uint256"
        },
        {
          "internalType": "string",
          "name": "productName",
          "type": "string"
        },
        {
          "internalType": "string",
          "name": "description",
          "type": "string"
        },
        {
          "internalType": "address",
          "name": "manufacturer",
          "type": "address"
        },
        {
          "internalType": "address",
          "name": "currentHandler",
          "type": "address"
        },
        {
          "internalType": "address",
          "name": "recipient",
          "type": "address"
        },
        {
          "internalType": "enum SupplyChain.ShipmentStatus",
          "name": "status",
          "type": "uint8"
        },
        {
          "internalType": "uint256",
          "name": "createdAt",
          "type": "uint256"
        },
        {
          "internalType": "uint256",
          "name": "deliveredAt",
          "type": "uint256"
        },
        {
          "internalType": "string",
          "name": "ipfsHash",
          "type": "string"
        },
        {
          "internalType": "bool",
          "name": "isActive",
          "type": "bool"
        }
      ],
      "stateMutability": "view",
      "type": "function",
      "constant": true
    },
    {
      "inputs": [
        {
          "internalType": "uint256",
          "name": "_shipmentId",
          "type": "uint256"
        }
      ],
      "name": "getLocationHistory",
      "outputs": [
        {
          "components": [
            {
              "internalType": "string",
              "name": "latitude",
              "type": "string"
            },
            {
              "internalType": "string",
              "name": "longitude",
              "type": "string"
            },
            {
              "internalType": "uint256",
              "name": "timestamp",
              "type": "uint256"
            }
          ],
          "internalType": "struct SupplyChain.Location[]",
          "name": "",
          "type": "tuple[]"
        }
      ],
      "stateMutability": "view",
      "type": "function",
      "constant": true
    },
    {
      "inputs": [
        {
          "internalType": "address",
          "name": "_user",
          "type": "address"
        }
      ],
      "name": "getUserShipments",
      "outputs": [
        {
          "internalType": "uint256[]",
          "name": "",
          "type": "uint256[]"
        }
      ],
      "stateMutability": "view",
      "type": "function",
      "constant": true
    }
  ],
  "bytecode": "0x608060405234801561001057600080fd5b5061001c600033610021565b6100b0565b61002b828261002f565b5050565b6000828152602081815260408083206001600160a01b038516845290915290205460ff1661002b576000828152602081815260408083206001600160a01b0385168085529252808320805460ff1916600117905551339285917f2f8788117e7eff1d82e926ec794901d17c78024a50270940304540a733656f0d9190a45050565b61178b806100bf6000396000f3fe608060405234801561001057600080fd5b50600436106101165760003560e01c80634eabbe77116100a2578063a217fddf11610071578063a217fddf146102b2578063abd90816146102ba578063b7472885146102cd578063ca6a5ec9146102e0578063d547741f146102f357600080fd5b80634eabbe771461022157806391d14854146102485780639490c9ef1461026b578063965288b01461028b57600080fd5b80632ac08a93116100e95780632ac08a93146101ca5780632f2ff15d146101dd5780633355f010146101f25780633a1b3d31146102055780634647f9da1461021857600080fd5b8063092b37401461011b578063142d95701461014e578063204d79231461016e5780632115e7bf146101a3575b600080fd5b61012e61012936600461108f565b610306565b6040516101459b9a99989796959493929190611126565b60405180910390f35b61016161015c36600461108f565b61057f565b60405161014591906111be565b6101957f288a15c4a15d470e4cd9cad2f113b91206b520c26dbd3dd74627f0c057baa19c81565b604051908152602001610145565b6101957f2a5f906c256a5d799494fcd066e1f6c077689de1cdb65052a1624de4bace99bf81565b61012e6101d836600461108f565b610722565b6101f06101eb36600461126b565b61092a565b005b610195610200366004611297565b61096a565b6101f06102133660046112c1565b61099b565b61019560015481565b6101957fddaa901e2fe3bda354fe0ede2785152d5c109282a613fe024a056a3e66c41bb381565b61025b61025636600461126b565b610b17565b6040519015158152602001610145565b61027e6102793660046112f5565b610b40565b6040516101459190611317565b6101957feefb95e842a3287179d933b4460be539a1d5af11aa8b325bb45c5c8dc92de4ed81565b610195600081565b6101f06102c836600461126b565b610bac565b6101f06102db3660046113fe565b610caa565b6101956102ee36600461146b565b610e03565b6101f061030136600461126b565b610f90565b60006060806000806000806000806060600080600260008e81526020019081526020016000209050806000015481600101826002018360030160009054906101000a90046001600160a01b03168460040160009054906101000a90046001600160a01b03168560050160009054906101000a90046001600160a01b03168660050160149054906101000a900460ff1687600601548860070154896009018a600a0160009054906101000a900460ff168980546103c190611504565b80601f01602080910402602001604051908101604052809291908181526020018280546103ed90611504565b801561043a5780601f1061040f5761010080835404028352916020019161043a565b820191906000526020600020905b81548152906001019060200180831161041d57829003601f168201915b5050505050995088805461044d90611504565b80601f016020809104026020016040519081016040528092919081815260200182805461047990611504565b80156104c65780601f1061049b576101008083540402835291602001916104c6565b820191906000526020600020905b8154815290600101906020018083116104a957829003601f168201915b505050505098508180546104d990611504565b80601f016020809104026020016040519081016040528092919081815260200182805461050590611504565b80156105525780601f1061052757610100808354040283529160200191610552565b820191906000526020600020905b81548152906001019060200180831161053557829003601f168201915b505050505091509b509b509b509b509b509b509b509b509b509b509b505091939597999b90929496989a50565b606060026000838152602001908152602001600020600801805480602002602001604051908101604052809291908181526020016000905b8282101561071757838290600052602060002090600302016040518060600160405290816000820180546105ea90611504565b80601f016020809104026020016040519081016040528092919081815260200182805461061690611504565b80156106635780601f1061063857610100808354040283529160200191610663565b820191906000526020600020905b81548152906001019060200180831161064657829003601f168201915b5050505050815260200160018201805461067c90611504565b80601f01602080910402602001604051908101604052809291908181526020018280546106a890611504565b80156106f55780601f106106ca576101008083540402835291602001916106f5565b820191906000526020600020905b8154815290600101906020018083116106d857829003601f168201915b50505050508152602001600282015481525050815260200190600101906105b7565b505050509050919050565b6002602052600090815260409020805460018201805491929161074490611504565b80601f016020809104026020016040519081016040528092919081815260200182805461077090611504565b80156107bd5780601f10610792576101008083540402835291602001916107bd565b820191906000526020600020905b8154815290600101906020018083116107a057829003601f168201915b5050505050908060020180546107d290611504565b80601f01602080910402602001604051908101604052809291908181526020018280546107fe90611504565b801561084b5780601f106108205761010080835404028352916020019161084b565b820191906000526020600020905b81548152906001019060200180831161082e57829003601f168201915b505050506003830154600484015460058501546006860154600787015460098801805497986001600160a01b0396871698958716975095841695600160a01b90940460ff16949293919261089e90611504565b80601f01602080910402602001604051908101604052809291908181526020018280546108ca90611504565b80156109175780601f106108ec57610100808354040283529160200191610917565b820191906000526020600020905b8154815290600101906020018083116108fa57829003601f168201915b505050600a909301549192505060ff168b565b60006109368133610b17565b61095b5760405162461bcd60e51b81526004016109529061153e565b60405180910390fd5b6109658383610fc2565b505050565b6003602052816000526040600020818154811061098657600080fd5b90600052602060002001600091509150505481565b6000828152600260205260409020600a81015460ff166109cd5760405162461bcd60e51b81526004016109529061158f565b60048101546001600160a01b0316331480610a0d5750610a0d7fddaa901e2fe3bda354fe0ede2785152d5c109282a613fe024a056a3e66c41bb333610b17565b610a4a5760405162461bcd60e51b815260206004820152600e60248201526d139bdd08185d5d1a1bdc9a5e995960921b6044820152606401610952565b818160050160146101000a81548160ff02191690836005811115610a7057610a706110ee565b02179055506004826005811115610a8957610a896110ee565b03610ad8574260078201819055600a8201805460ff1916905560405190815283907fdd3eafcd99a3f4d8b6ce7d52cf71f07a3e59d9d6c0b066eaa314812456b6b8559060200160405180910390a25b827f4f4cecb8d0fd736cdab2e7eb7cfce8ea973e74f91fbcdfd5d02f6707ebd6c72c8342604051610b0a9291906115bc565b60405180910390a2505050565b6000918252602082815260408084206001600160a01b0393909316845291905290205460ff1690565b6001600160a01b038116600090815260036020908152604091829020805483518184028101840190945280845260609392830182828015610ba057602002820191906000526020600020905b815481526020019060010190808311610b8c575b50505050509050919050565b6000828152600260205260409020600a81015460ff16610bde5760405162461bcd60e51b81526004016109529061158f565b60048101546001600160a01b03163314610c305760405162461bcd60e51b81526020600482015260136024820152722737ba1031bab93932b73a103430b7323632b960691b6044820152606401610952565b6004810180546001600160a01b038481166001600160a01b0319831681179093556000838152600360209081526040808320805460018101825590845291832090910188905551919092169291839187917f8ea68e319ec63971cfcfd96e98c5d4b2a2ec70ca4c358c0cdaba1ff42fb5ca4f91a450505050565b6000838152600260205260409020600a81015460ff16610cdc5760405162461bcd60e51b81526004016109529061158f565b60048101546001600160a01b0316331480610d1c5750610d1c7fddaa901e2fe3bda354fe0ede2785152d5c109282a613fe024a056a3e66c41bb333610b17565b610d595760405162461bcd60e51b815260206004820152600e60248201526d139bdd08185d5d1a1bdc9a5e995960921b6044820152606401610952565b604080516060810182528481526020808201859052429282019290925260088301805460018101825560009182529290208151919260030201908190610d9f9082611625565b5060208201516001820190610db49082611625565b50604082015181600201555050837fc6b4151dd52b13a4146827a88be8cb9d07bb6018d07b014dc316be1f05a39613848442604051610df5939291906116e5565b60405180910390a250505050565b60007feefb95e842a3287179d933b4460be539a1d5af11aa8b325bb45c5c8dc92de4ed610e308133610b17565b610e4c5760405162461bcd60e51b81526004016109529061153e565b60018054906000610e5c8361171b565b9091555050600180546000818152600260205260409020908155908101610e838882611625565b5060028101610e928782611625565b506003810180546001600160a01b03199081163390811790925560048301805490911690911790556005810180546001600160a81b0319166001600160a01b03871617905542600682015560098101610eeb8582611625565b50600a8101805460ff19166001908117909155336000818152600360209081526040808320855481548088018355918552838520909101556001600160a01b038a1683528083208554815480880183559185529290932090920155915491519091907f8c9bdf27ba84a24e737f3e4e480ca9c515fe7b7510f351aee254db99ccb9f47190610f7a908b90611742565b60405180910390a3505060015495945050505050565b6000610f9c8133610b17565b610fb85760405162461bcd60e51b81526004016109529061153e565b610965838361102a565b610fcc8282610b17565b611026576000828152602081815260408083206001600160a01b0385168085529252808320805460ff1916600117905551339285917f2f8788117e7eff1d82e926ec794901d17c78024a50270940304540a733656f0d9190a45b5050565b6110348282610b17565b15611026576000828152602081815260408083206001600160a01b0385168085529252808320805460ff1916905551339285917ff6391f5c32d9c69d2a47ea670b442974b53935d1edc7fd64eb21e047a839171b9190a45050565b6000602082840312156110a157600080fd5b5035919050565b6000815180845260005b818110156110ce576020818501810151868301820152016110b2565b506000602082860101526020601f19601f83011685010191505092915050565b634e487b7160e01b600052602160045260246000fd5b6006811061112257634e487b7160e01b600052602160045260246000fd5b9052565b60006101608d83528060208401526111408184018e6110a8565b90508281036040840152611154818d6110a8565b6001600160a01b038c811660608601528b811660808601528a1660a0850152905061118260c0840189611104565b8660e0840152856101008401528281036101208401526111a281866110a8565b9150508215156101408301529c9b505050505050505050505050565b60006020808301818452808551808352604092508286019150828160051b87010184880160005b8381101561124157603f1989840301855281516060815181865261120b828701826110a8565b915050888201518582038a87015261122382826110a8565b928901519589019590955250948701949250908601906001016111e5565b509098975050505050505050565b80356001600160a01b038116811461126657600080fd5b919050565b6000806040838503121561127e57600080fd5b8235915061128e6020840161124f565b90509250929050565b600080604083850312156112aa57600080fd5b6112b38361124f565b946020939093013593505050565b600080604083850312156112d457600080fd5b823591506020830135600681106112ea57600080fd5b809150509250929050565b60006020828403121561130757600080fd5b6113108261124f565b9392505050565b6020808252825182820181905260009190848201906040850190845b8181101561134f57835183529284019291840191600101611333565b50909695505050505050565b634e487b7160e01b600052604160045260246000fd5b600082601f83011261138257600080fd5b813567ffffffffffffffff8082111561139d5761139d61135b565b604051601f8301601f19908116603f011681019082821181831017156113c5576113c561135b565b816040528381528660208588010111156113de57600080fd5b836020870160208301376000602085830101528094505050505092915050565b60008060006060848603121561141357600080fd5b83359250602084013567ffffffffffffffff8082111561143257600080fd5b61143e87838801611371565b9350604086013591508082111561145457600080fd5b5061146186828701611371565b9150509250925092565b6000806000806080858703121561148157600080fd5b843567ffffffffffffffff8082111561149957600080fd5b6114a588838901611371565b955060208701359150808211156114bb57600080fd5b6114c788838901611371565b94506114d56040880161124f565b935060608701359150808211156114eb57600080fd5b506114f887828801611371565b91505092959194509250565b600181811c9082168061151857607f821691505b60208210810361153857634e487b7160e01b600052602260045260246000fd5b50919050565b60208082526031908201527f416363657373436f6e74726f6c3a2073656e64657220646f6573206e6f74206860408201527061766520726571756972656420726f6c6560781b606082015260800190565b602080825260139082015272536869706d656e74206e6f742061637469766560681b604082015260600190565b604081016115ca8285611104565b8260208301529392505050565b601f82111561096557600081815260208120601f850160051c810160208610156115fe5750805b601f850160051c820191505b8181101561161d5782815560010161160a565b505050505050565b815167ffffffffffffffff81111561163f5761163f61135b565b6116538161164d8454611504565b846115d7565b602080601f83116001811461168857600084156116705750858301515b600019600386901b1c1916600185901b17855561161d565b600085815260208120601f198616915b828110156116b757888601518255948401946001909101908401611698565b50858210156116d55787850151600019600388901b60f8161c191681555b5050505050600190811b01905550565b6060815260006116f860608301866110a8565b828103602084015261170a81866110a8565b915050826040830152949350505050565b60006001820161173b57634e487b7160e01b600052601160045260246000fd5b5060010190565b60208152600061131060208301846110a856fea2646970667358221220924155b3d420ae0b57d4239a9f8d479ae230a8e8df168da8a2028088b9fc545164736f6c63430008130033",
  "immutableReferences": {},
  "source": "pragma solidity ^0.8.0;\n\nimport \"./AccessControl.sol\";\n\ncontract SupplyChain is AccessControl {\n    \n    enum ShipmentStatus { \n        Created, \n        InTransit, \n        AtWarehouse, \n        OutForDelivery, \n        Delivered, \n        Cancelled \n    }\n    \n    struct Location {\n        string latitude;\n        string longitude;\n        uint256 timestamp;\n    }\n    \n    struct Shipment {\n        uint256 id;\n        string productName;\n        string description;\n        address manufacturer;\n        address currentHandler;\n        address recipient;\n        ShipmentStatus status;\n        uint256 createdAt;\n        uint256 deliveredAt;\n        Location[] locationHistory;\n        string ipfsHash;  // For documents/images\n        bool isActive;\n    }\n    \n    uint256 public shipmentCounter;\n    mapping(uint256 => Shipment) public shipments;\n    mapping(address => uint256[]) public userShipments;\n    \n    // Events for real-time tracking\n    event ShipmentCreated(uint256 indexed id, address indexed manufacturer, string productName);\n    event StatusUpdated(uint256 indexed id, ShipmentStatus status, uint256 timestamp);\n    event LocationUpdated(uint256 indexed id, string latitude, string longitude, uint256 timestamp);\n    event HandlerChanged(uint256 indexed id, address indexed oldHandler, address indexed newHandler);\n    event ShipmentDelivered(uint256 indexed id, uint256 timestamp);\n    \n    constructor() {\n        _setupRole(DEFAULT_ADMIN_ROLE, msg.sender);\n    }\n    \n    function createShipment(\n        string memory _productName,\n        string memory _description,\n        address _recipient,\n        string memory _ipfsHash\n    ) external onlyRole(MANUFACTURER_ROLE) returns (uint256) {\n        shipmentCounter++;\n        \n        Shipment storage newShipment = shipments[shipmentCounter];\n        newShipment.id = shipmentCounter;\n        newShipment.productName = _productName;\n        newShipment.description = _description;\n        newShipment.manufacturer = msg.sender;\n        newShipment.currentHandler = msg.sender;\n        newShipment.recipient = _recipient;\n        newShipment.status = ShipmentStatus.Created;\n        newShipment.createdAt = block.timestamp;\n        newShipment.ipfsHash = _ipfsHash;\n        newShipment.isActive = true;\n        \n        userShipments[msg.sender].push(shipmentCounter);\n        userShipments[_recipient].push(shipmentCounter);\n        \n        emit ShipmentCreated(shipmentCounter, msg.sender, _productName);\n        \n        return shipmentCounter;\n    }\n    \n    function updateLocation(\n        uint256 _shipmentId,\n        string memory _latitude,\n        string memory _longitude\n    ) external {\n        Shipment storage shipment = shipments[_shipmentId];\n        require(shipment.isActive, \"Shipment not active\");\n        require(\n            shipment.currentHandler == msg.sender || hasRole(TRANSPORTER_ROLE, msg.sender),\n            \"Not authorized\"\n        );\n        \n        shipment.locationHistory.push(Location({\n            latitude: _latitude,\n            longitude: _longitude,\n            timestamp: block.timestamp\n        }));\n        \n        emit LocationUpdated(_shipmentId, _latitude, _longitude, block.timestamp);\n    }\n    \n    function updateStatus(\n        uint256 _shipmentId,\n        ShipmentStatus _status\n    ) external {\n        Shipment storage shipment = shipments[_shipmentId];\n        require(shipment.isActive, \"Shipment not active\");\n        require(\n            shipment.currentHandler == msg.sender || hasRole(TRANSPORTER_ROLE, msg.sender),\n            \"Not authorized\"\n        );\n        \n        shipment.status = _status;\n        \n        if (_status == ShipmentStatus.Delivered) {\n            shipment.deliveredAt = block.timestamp;\n            shipment.isActive = false;\n            emit ShipmentDelivered(_shipmentId, block.timestamp);\n        }\n        \n        emit StatusUpdated(_shipmentId, _status, block.timestamp);\n    }\n    \n    function transferHandler(\n        uint256 _shipmentId,\n        address _newHandler\n    ) external {\n        Shipment storage shipment = shipments[_shipmentId];\n        require(shipment.isActive, \"Shipment not active\");\n        require(shipment.currentHandler == msg.sender, \"Not current handler\");\n        \n        address oldHandler = shipment.currentHandler;\n        shipment.currentHandler = _newHandler;\n        userShipments[_newHandler].push(_shipmentId);\n        \n        emit HandlerChanged(_shipmentId, oldHandler, _newHandler);\n    }\n    \n    function getShipment(uint256 _shipmentId) \n        external \n        view \n        returns (\n            uint256 id,\n            string memory productName,\n            string memory description,\n            address manufacturer,\n            address currentHandler,\n            address recipient,\n            ShipmentStatus status,\n            uint256 createdAt,\n            uint256 deliveredAt,\n            string memory ipfsHash,\n            bool isActive\n        ) \n    {\n        Shipment storage shipment = shipments[_shipmentId];\n        return (\n            shipment.id,\n            shipment.productName,\n            shipment.description,\n            shipment.manufacturer,\n            shipment.currentHandler,\n            shipment.recipient,\n            shipment.status,\n            shipment.createdAt,\n            shipment.deliveredAt,\n            shipment.ipfsHash,\n            shipment.isActive\n        );\n    }\n    \n    function getLocationHistory(uint256 _shipmentId) \n        external \n        view \n        returns (Location[] memory) \n    {\n        return shipments[_shipmentId].locationHistory;\n    }\n    \n    function getUserShipments(address _user) \n        external \n        view \n        returns (uint256[] memory) \n    {\n        return userShipments[_user];\n    }\n}",
  "sourcePath": "/Users/prakashraval/Library/CloudStorage/OneDrive-DeakinUniversity/Trimester 3 (July 2025)/Blockchain Technologies and Real-World Applications/hd/Task10.2/contracts/SupplyChain.sol",
  "compiler": {
    "name": "solc",
    "version": "0.8.19+commit.7dd6d404.Emscripten.clang"
  },
  "schemaVersion": "3.4.16",
  "updatedAt": "2025-09-29T12:20:08.824Z",
  "networkType": "ethereum",
  "devdoc": {
    "kind": "dev",
    "methods": {},
    "version": 1
  },
  "userdoc": {
    "kind": "user",
    "methods": {},
    "version": 1
  }
}